{
  "_format": "hh-sol-artifact-1",
  "contractName": "Vault",
  "sourceName": "contracts/Vault.sol",
  "abi": [
    {
      "anonymous": false,
      "inputs": [
        {
          "indexed": false,
          "internalType": "uint8",
          "name": "version",
          "type": "uint8"
        }
      ],
      "name": "Initialized",
      "type": "event"
    },
    {
      "anonymous": false,
      "inputs": [
        {
          "indexed": true,
          "internalType": "address",
          "name": "previousOwner",
          "type": "address"
        },
        {
          "indexed": true,
          "internalType": "address",
          "name": "newOwner",
          "type": "address"
        }
      ],
      "name": "OwnershipTransferred",
      "type": "event"
    },
    {
      "anonymous": false,
      "inputs": [
        {
          "indexed": false,
          "internalType": "address",
          "name": "account",
          "type": "address"
        }
      ],
      "name": "Paused",
      "type": "event"
    },
    {
      "anonymous": false,
      "inputs": [
        {
          "indexed": false,
          "internalType": "address",
          "name": "token",
          "type": "address"
        },
        {
          "indexed": false,
          "internalType": "uint256",
          "name": "amount",
          "type": "uint256"
        }
      ],
      "name": "Recovered",
      "type": "event"
    },
    {
      "anonymous": false,
      "inputs": [
        {
          "indexed": false,
          "internalType": "uint256",
          "name": "reward",
          "type": "uint256"
        }
      ],
      "name": "RewardAdded",
      "type": "event"
    },
    {
      "anonymous": false,
      "inputs": [
        {
          "indexed": true,
          "internalType": "address",
          "name": "user",
          "type": "address"
        },
        {
          "indexed": false,
          "internalType": "uint256",
          "name": "reward",
          "type": "uint256"
        }
      ],
      "name": "RewardPaid",
      "type": "event"
    },
    {
      "anonymous": false,
      "inputs": [
        {
          "indexed": false,
          "internalType": "uint256",
          "name": "newDuration",
          "type": "uint256"
        }
      ],
      "name": "RewardsDurationUpdated",
      "type": "event"
    },
    {
      "anonymous": false,
      "inputs": [
        {
          "indexed": true,
          "internalType": "address",
          "name": "user",
          "type": "address"
        },
        {
          "indexed": false,
          "internalType": "uint256",
          "name": "amount",
          "type": "uint256"
        }
      ],
      "name": "Staked",
      "type": "event"
    },
    {
      "anonymous": false,
      "inputs": [
        {
          "indexed": false,
          "internalType": "address",
          "name": "account",
          "type": "address"
        }
      ],
      "name": "Unpaused",
      "type": "event"
    },
    {
      "anonymous": false,
      "inputs": [
        {
          "indexed": true,
          "internalType": "address",
          "name": "user",
          "type": "address"
        },
        {
          "indexed": false,
          "internalType": "uint256",
          "name": "amount",
          "type": "uint256"
        }
      ],
      "name": "Withdrawn",
      "type": "event"
    },
    {
      "inputs": [
        {
          "internalType": "uint256",
          "name": "reward",
          "type": "uint256"
        }
      ],
      "name": "addReward",
      "outputs": [],
      "stateMutability": "nonpayable",
      "type": "function"
    },
    {
      "inputs": [
        {
          "internalType": "address",
          "name": "beneficiary",
          "type": "address"
        }
      ],
      "name": "balanceOf",
      "outputs": [
        {
          "internalType": "uint256",
          "name": "",
          "type": "uint256"
        }
      ],
      "stateMutability": "view",
      "type": "function"
    },
    {
      "inputs": [
        {
          "internalType": "address",
          "name": "beneficiary",
          "type": "address"
        }
      ],
      "name": "earned",
      "outputs": [
        {
          "internalType": "uint256",
          "name": "",
          "type": "uint256"
        }
      ],
      "stateMutability": "view",
      "type": "function"
    },
    {
      "inputs": [],
      "name": "exit",
      "outputs": [],
      "stateMutability": "nonpayable",
      "type": "function"
    },
    {
      "inputs": [],
      "name": "getReward",
      "outputs": [],
      "stateMutability": "nonpayable",
      "type": "function"
    },
    {
      "inputs": [],
      "name": "getRewardForDuration",
      "outputs": [
        {
          "internalType": "uint256",
          "name": "",
          "type": "uint256"
        }
      ],
      "stateMutability": "view",
      "type": "function"
    },
    {
      "inputs": [
        {
          "internalType": "address",
          "name": "_stakingToken",
          "type": "address"
        },
        {
          "internalType": "address",
          "name": "_rewardToken",
          "type": "address"
        }
      ],
      "name": "initialize",
      "outputs": [],
      "stateMutability": "nonpayable",
      "type": "function"
    },
    {
      "inputs": [],
      "name": "lastTimeRewardApplicable",
      "outputs": [
        {
          "internalType": "uint256",
          "name": "",
          "type": "uint256"
        }
      ],
      "stateMutability": "view",
      "type": "function"
    },
    {
      "inputs": [],
      "name": "lastUpdateTime",
      "outputs": [
        {
          "internalType": "uint256",
          "name": "",
          "type": "uint256"
        }
      ],
      "stateMutability": "view",
      "type": "function"
    },
    {
      "inputs": [
        {
          "internalType": "uint256",
          "name": "reward",
          "type": "uint256"
        }
      ],
      "name": "notifyRewardAmount",
      "outputs": [],
      "stateMutability": "nonpayable",
      "type": "function"
    },
    {
      "inputs": [],
      "name": "owner",
      "outputs": [
        {
          "internalType": "address",
          "name": "",
          "type": "address"
        }
      ],
      "stateMutability": "view",
      "type": "function"
    },
    {
      "inputs": [],
      "name": "pause",
      "outputs": [],
      "stateMutability": "nonpayable",
      "type": "function"
    },
    {
      "inputs": [],
      "name": "paused",
      "outputs": [
        {
          "internalType": "bool",
          "name": "",
          "type": "bool"
        }
      ],
      "stateMutability": "view",
      "type": "function"
    },
    {
      "inputs": [],
      "name": "periodFinish",
      "outputs": [
        {
          "internalType": "uint256",
          "name": "",
          "type": "uint256"
        }
      ],
      "stateMutability": "view",
      "type": "function"
    },
    {
      "inputs": [
        {
          "internalType": "address",
          "name": "tokenAddress",
          "type": "address"
        },
        {
          "internalType": "uint256",
          "name": "tokenAmount",
          "type": "uint256"
        }
      ],
      "name": "recoverERC20",
      "outputs": [],
      "stateMutability": "nonpayable",
      "type": "function"
    },
    {
      "inputs": [],
      "name": "renounceOwnership",
      "outputs": [],
      "stateMutability": "nonpayable",
      "type": "function"
    },
    {
      "inputs": [],
      "name": "rewardPerToken",
      "outputs": [
        {
          "internalType": "uint256",
          "name": "",
          "type": "uint256"
        }
      ],
      "stateMutability": "view",
      "type": "function"
    },
    {
      "inputs": [],
      "name": "rewardPerTokenStored",
      "outputs": [
        {
          "internalType": "uint256",
          "name": "",
          "type": "uint256"
        }
      ],
      "stateMutability": "view",
      "type": "function"
    },
    {
      "inputs": [],
      "name": "rewardRate",
      "outputs": [
        {
          "internalType": "uint256",
          "name": "",
          "type": "uint256"
        }
      ],
      "stateMutability": "view",
      "type": "function"
    },
    {
      "inputs": [
        {
          "internalType": "address",
          "name": "",
          "type": "address"
        }
      ],
      "name": "rewards",
      "outputs": [
        {
          "internalType": "uint256",
          "name": "",
          "type": "uint256"
        }
      ],
      "stateMutability": "view",
      "type": "function"
    },
    {
      "inputs": [],
      "name": "rewardsDuration",
      "outputs": [
        {
          "internalType": "uint256",
          "name": "",
          "type": "uint256"
        }
      ],
      "stateMutability": "view",
      "type": "function"
    },
    {
      "inputs": [],
      "name": "rewardsToken",
      "outputs": [
        {
          "internalType": "contract IERC20Upgradeable",
          "name": "",
          "type": "address"
        }
      ],
      "stateMutability": "view",
      "type": "function"
    },
    {
      "inputs": [
        {
          "internalType": "uint256",
          "name": "newRewardsDuration",
          "type": "uint256"
        }
      ],
      "name": "setRewardsDuration",
      "outputs": [],
      "stateMutability": "nonpayable",
      "type": "function"
    },
    {
      "inputs": [
        {
          "internalType": "uint256",
          "name": "amount",
          "type": "uint256"
        }
      ],
      "name": "stake",
      "outputs": [],
      "stateMutability": "nonpayable",
      "type": "function"
    },
    {
      "inputs": [],
      "name": "stakingToken",
      "outputs": [
        {
          "internalType": "contract IERC20Upgradeable",
          "name": "",
          "type": "address"
        }
      ],
      "stateMutability": "view",
      "type": "function"
    },
    {
      "inputs": [],
      "name": "totalSupply",
      "outputs": [
        {
          "internalType": "uint256",
          "name": "",
          "type": "uint256"
        }
      ],
      "stateMutability": "view",
      "type": "function"
    },
    {
      "inputs": [
        {
          "internalType": "address",
          "name": "newOwner",
          "type": "address"
        }
      ],
      "name": "transferOwnership",
      "outputs": [],
      "stateMutability": "nonpayable",
      "type": "function"
    },
    {
      "inputs": [],
      "name": "unpause",
      "outputs": [],
      "stateMutability": "nonpayable",
      "type": "function"
    },
    {
      "inputs": [
        {
          "internalType": "address",
          "name": "",
          "type": "address"
        }
      ],
      "name": "userRewardPerTokenPaid",
      "outputs": [
        {
          "internalType": "uint256",
          "name": "",
          "type": "uint256"
        }
      ],
      "stateMutability": "view",
      "type": "function"
    },
    {
      "inputs": [
        {
          "internalType": "uint256",
          "name": "amount",
          "type": "uint256"
        }
      ],
      "name": "withdraw",
      "outputs": [],
      "stateMutability": "nonpayable",
      "type": "function"
    }
  ],
  "bytecode": "0x608060405234801561001057600080fd5b50611745806100206000396000f3fe608060405234801561001057600080fd5b50600436106101995760003560e01c80637b0a47ee116100e4578063c8f33c9111610092578063c8f33c9114610333578063cc1a378f1461033c578063cd3daf9d1461034f578063d1af0c7d14610357578063df136d651461036a578063e9fad8ee14610373578063ebe2b12b1461037b578063f2fde38b1461038457600080fd5b80637b0a47ee146102c357806380faa57d146102cc5780638456cb59146102d45780638980f11f146102dc5780638b876347146102ef5780638da5cb5b1461030f578063a694fc3a1461032057600080fd5b80633d18b9121161014c5780633d18b912146102265780633f4ba83a1461022e578063485cc955146102365780635c975abb1461024957806370a082311461025f578063715018a61461028857806372f702f31461029057806374de4ec4146102b057600080fd5b80628cc2621461019e5780630700037d146101c457806318160ddd146101e45780631c1f78eb146101ed5780632e1a7d4d146101f5578063386a95251461020a5780633c6b16ab14610213575b600080fd5b6101b16101ac3660046114ac565b610397565b6040519081526020015b60405180910390f35b6101b16101d23660046114ac565b60d16020526000908152604090205481565b6101b160d25481565b6101b1610414565b6102086102033660046114c7565b61042b565b005b6101b160cd5481565b6102086102213660046114c7565b610594565b6102086105a8565b6102086106ad565b6102086102443660046114e0565b6106bf565b60975460ff1660405190151581526020016101bb565b6101b161026d3660046114ac565b6001600160a01b0316600090815260d3602052604090205490565b61020861081a565b60ca546102a3906001600160a01b031681565b6040516101bb9190611513565b6102086102be3660046114c7565b61082c565b6101b160cc5481565b6101b161087d565b610208610894565b6102086102ea366004611527565b6108a4565b6101b16102fd3660046114ac565b60d06020526000908152604090205481565b6033546001600160a01b03166102a3565b61020861032e3660046114c7565b6109ad565b6101b160ce5481565b61020861034a3660046114c7565b610afe565b6101b1610bd9565b60c9546102a3906001600160a01b031681565b6101b160cf5481565b610208610c3b565b6101b160cb5481565b6102086103923660046114ac565b610c64565b6001600160a01b038116600090815260d1602090815260408083205460d0909252822054670de0b6b3a7640000906103cd610bd9565b6103d79190611567565b6001600160a01b038516600090815260d360205260409020546103fa919061157e565b610404919061159d565b61040e91906115bf565b92915050565b600060cd5460cc54610426919061157e565b905090565b600260655414156104575760405162461bcd60e51b815260040161044e906115d7565b60405180910390fd5b6002606555610464610cda565b3361046d610bd9565b60cf5561047861087d565b60ce556001600160a01b038116156104bf5761049381610397565b6001600160a01b038216600090815260d1602090815260408083209390935560cf5460d0909152919020555b600082116105035760405162461bcd60e51b8152602060048201526011602482015270043616e6e6f74207769746864726177203607c1b604482015260640161044e565b8160d260008282546105159190611567565b909155505033600090815260d3602052604081208054849290610539908490611567565b909155505060ca54610555906001600160a01b03163384610d20565b60405182815233907f7084f5476618d8e60b11ef0d7d3f06914655adb8793e28ff7f018d4c76d505d5906020015b60405180910390a250506001606555565b61059c610d83565b6105a581610ddd565b50565b6105b0610cda565b600260655414156105d35760405162461bcd60e51b815260040161044e906115d7565b6002606555336105e1610bd9565b60cf556105ec61087d565b60ce556001600160a01b038116156106335761060781610397565b6001600160a01b038216600090815260d1602090815260408083209390935560cf5460d0909152919020555b33600090815260d1602052604090205480156106a45733600081815260d1602052604081205560c954610672916001600160a01b039091169083610d20565b60405181815233907fe2403640ba68fed3a2f88b7557551d1993f84b99bb10ff833f0cf8db0c5e048690602001610583565b50506001606555565b6106b5610d83565b6106bd610fbb565b565b600054610100900460ff16158080156106df5750600054600160ff909116105b806106f95750303b1580156106f9575060005460ff166001145b61075c5760405162461bcd60e51b815260206004820152602e60248201527f496e697469616c697a61626c653a20636f6e747261637420697320616c72656160448201526d191e481a5b9a5d1a585b1a5e995960921b606482015260840161044e565b6000805460ff19166001179055801561077f576000805461ff0019166101001790555b610787611007565b61078f611036565b610797611065565b60c980546001600160a01b038085166001600160a01b03199283161790925560ca80549286169290911691909117905562278d0060cd558015610815576000805461ff0019169055604051600181527f7f26b83ff96e1f2b6a682f133852f6798a09c465da95921460cefb3847402498906020015b60405180910390a15b505050565b610822610d83565b6106bd6000611094565b6002606554141561084f5760405162461bcd60e51b815260040161044e906115d7565b600260655560c95461086c906001600160a01b03163330846110e6565b61087581610ddd565b506001606555565b600060cb54421061088f575060cb5490565b504290565b61089c610d83565b6106bd611124565b6108ac610d83565b600260655414156108cf5760405162461bcd60e51b815260040161044e906115d7565b600260655560ca546001600160a01b038381169116141561093c5760405162461bcd60e51b815260206004820152602160248201527f43616e6e6f7420776974686472617720746865207374616b696e6720746f6b656044820152603760f91b606482015260840161044e565b6109626109516033546001600160a01b031690565b6001600160a01b0384169083610d20565b604080516001600160a01b0384168152602081018390527f8c1256b8896378cd5044f80c202f9772b9d77dc85c8a6eb51967210b09bfaa28910160405180910390a150506001606555565b600260655414156109d05760405162461bcd60e51b815260040161044e906115d7565b60026065556109dd610cda565b336109e6610bd9565b60cf556109f161087d565b60ce556001600160a01b03811615610a3857610a0c81610397565b6001600160a01b038216600090815260d1602090815260408083209390935560cf5460d0909152919020555b60008211610a795760405162461bcd60e51b815260206004820152600e60248201526d043616e6e6f74207374616b6520360941b604482015260640161044e565b8160d26000828254610a8b91906115bf565b909155505033600090815260d3602052604081208054849290610aaf9084906115bf565b909155505060ca54610acc906001600160a01b03163330856110e6565b60405182815233907f9e71bc8eea02a63969f509818f2dafb9254532904319f9dbda79b67bd34a5f3d90602001610583565b610b06610d83565b60cb544211610b9e5760405162461bcd60e51b815260206004820152605860248201527f50726576696f7573207265776172647320706572696f64206d7573742062652060448201527f636f6d706c657465206265666f7265206368616e67696e672074686520647572606482015277185d1a5bdb88199bdc881d1a19481b995dc81c195c9a5bd960421b608482015260a40161044e565b60cd8190556040518181527ffb46ca5a5e06d4540d6387b930a7c978bce0db5f449ec6b3f5d07c6e1d44f2d39060200160405180910390a150565b600060d25460001415610bed575060cf5490565b60d25460cc5460ce54610bfe61087d565b610c089190611567565b610c12919061157e565b610c2490670de0b6b3a764000061157e565b610c2e919061159d565b60cf5461042691906115bf565b610c43610cda565b33600090815260d36020526040902054610c5c9061042b565b6106bd6105a8565b610c6c610d83565b6001600160a01b038116610cd15760405162461bcd60e51b815260206004820152602660248201527f4f776e61626c653a206e6577206f776e657220697320746865207a65726f206160448201526564647265737360d01b606482015260840161044e565b6105a581611094565b60975460ff16156106bd5760405162461bcd60e51b815260206004820152601060248201526f14185d5cd8589b194e881c185d5cd95960821b604482015260640161044e565b6040516001600160a01b03831660248201526044810182905261081590849063a9059cbb60e01b906064015b60408051601f198184030181529190526020810180516001600160e01b03166001600160e01b031990931692909217909152611161565b6033546001600160a01b031633146106bd5760405162461bcd60e51b815260206004820181905260248201527f4f776e61626c653a2063616c6c6572206973206e6f7420746865206f776e6572604482015260640161044e565b6000610de7610bd9565b60cf55610df261087d565b60ce556001600160a01b03811615610e3957610e0d81610397565b6001600160a01b038216600090815260d1602090815260408083209390935560cf5460d0909152919020555b60cb544210610e575760cd54610e4f908361159d565b60cc55610e99565b60004260cb54610e679190611567565b9050600060cc5482610e79919061157e565b60cd54909150610e8982866115bf565b610e93919061159d565b60cc5550505b60c9546040516370a0823160e01b81526000916001600160a01b0316906370a0823190610eca903090600401611513565b60206040518083038186803b158015610ee257600080fd5b505afa158015610ef6573d6000803e3d6000fd5b505050506040513d601f19601f82011682018060405250810190610f1a919061160e565b905060cd5481610f2a919061159d565b60cc541115610f765760405162461bcd60e51b81526020600482015260186024820152770a0e4deecd2c8cac840e4caeec2e4c840e8dede40d0d2ced60431b604482015260640161044e565b4260ce81905560cd54610f88916115bf565b60cb556040518381527fde88a922e0d3b88b24e9623efeb464919c6bf9f66857a65e2bfcf2ce87a9433d9060200161080c565b610fc3611233565b6097805460ff191690557f5db9ee0a495bf2e6ff9c91a7834c1ba4fdd244a5e8aa4e537bd38aeae4b073aa335b604051610ffd9190611513565b60405180910390a1565b600054610100900460ff1661102e5760405162461bcd60e51b815260040161044e90611627565b6106bd61127c565b600054610100900460ff1661105d5760405162461bcd60e51b815260040161044e90611627565b6106bd6112ac565b600054610100900460ff1661108c5760405162461bcd60e51b815260040161044e90611627565b6106bd6112df565b603380546001600160a01b038381166001600160a01b0319831681179093556040519116919082907f8be0079c531659141344cd1fd0a4f28419497f9722a3daafe3b4186f6b6457e090600090a35050565b6040516001600160a01b038085166024830152831660448201526064810182905261111e9085906323b872dd60e01b90608401610d4c565b50505050565b61112c610cda565b6097805460ff191660011790557f62e78cea01bee320cd4e420270b5ea74000d11b0c9f74754ebdbfc544b05a258610ff03390565b60006111b6826040518060400160405280602081526020017f5361666545524332303a206c6f772d6c6576656c2063616c6c206661696c6564815250856001600160a01b031661130d9092919063ffffffff16565b80519091501561081557808060200190518101906111d49190611672565b6108155760405162461bcd60e51b815260206004820152602a60248201527f5361666545524332303a204552433230206f7065726174696f6e20646964206e6044820152691bdd081cdd58d8d9595960b21b606482015260840161044e565b60975460ff166106bd5760405162461bcd60e51b815260206004820152601460248201527314185d5cd8589b194e881b9bdd081c185d5cd95960621b604482015260640161044e565b600054610100900460ff166112a35760405162461bcd60e51b815260040161044e90611627565b6106bd33611094565b600054610100900460ff166112d35760405162461bcd60e51b815260040161044e90611627565b6097805460ff19169055565b600054610100900460ff166113065760405162461bcd60e51b815260040161044e90611627565b6001606555565b606061131c8484600085611326565b90505b9392505050565b6060824710156113875760405162461bcd60e51b815260206004820152602660248201527f416464726573733a20696e73756666696369656e742062616c616e636520666f6044820152651c8818d85b1b60d21b606482015260840161044e565b6001600160a01b0385163b6113de5760405162461bcd60e51b815260206004820152601d60248201527f416464726573733a2063616c6c20746f206e6f6e2d636f6e7472616374000000604482015260640161044e565b600080866001600160a01b031685876040516113fa91906116c0565b60006040518083038185875af1925050503d8060008114611437576040519150601f19603f3d011682016040523d82523d6000602084013e61143c565b606091505b509150915061144c828286611457565b979650505050505050565b6060831561146657508161131f565b8251156114765782518084602001fd5b8160405162461bcd60e51b815260040161044e91906116dc565b80356001600160a01b03811681146114a757600080fd5b919050565b6000602082840312156114be57600080fd5b61131f82611490565b6000602082840312156114d957600080fd5b5035919050565b600080604083850312156114f357600080fd5b6114fc83611490565b915061150a60208401611490565b90509250929050565b6001600160a01b0391909116815260200190565b6000806040838503121561153a57600080fd5b61154383611490565b946020939093013593505050565b634e487b7160e01b600052601160045260246000fd5b60008282101561157957611579611551565b500390565b600081600019048311821515161561159857611598611551565b500290565b6000826115ba57634e487b7160e01b600052601260045260246000fd5b500490565b600082198211156115d2576115d2611551565b500190565b6020808252601f908201527f5265656e7472616e637947756172643a207265656e7472616e742063616c6c00604082015260600190565b60006020828403121561162057600080fd5b5051919050565b6020808252602b908201527f496e697469616c697a61626c653a20636f6e7472616374206973206e6f74206960408201526a6e697469616c697a696e6760a81b606082015260800190565b60006020828403121561168457600080fd5b8151801515811461131f57600080fd5b60005b838110156116af578181015183820152602001611697565b8381111561111e5750506000910152565b600082516116d2818460208701611694565b9190910192915050565b60208152600082518060208401526116fb816040850160208701611694565b601f01601f1916919091016040019291505056fea2646970667358221220a365fd18770c1c3d33a03c1a57802b3dfef844d0a7e553d7243b20cd549c831a64736f6c63430008090033",
  "linkReferences": {},
  "deployedLinkReferences": {}
}